:100000000C9434000C9446000C9446000C9446006A
:100010000C9446000C9446000C9446000C94460048
:100020000C9446000C9446000C9446000C94460038
:100030000C9446000C9446000C9446000C94460028
:100040000C9446000C9446000C9446000C94460018
:100050000C9446000C9446000C9446000C94460008
:100060000C9446000C94460011241FBECFEFD8E03C
:10007000DEBFCDBF21E0A0E0B1E001C01D92AC30F9
:10008000B207E1F70E94D7000C94EB000C9400003B
:1000900083EA84BD17BC18BC83E085BD91E89093CA
:1000A000800010928900109288009BE0909381005C
:1000B00093E29093B0001092B4008093B100089541
:1000C000239A25982D9A24982C9A22982A9A80E48B
:1000D0008CBD089503C01A99109201010DB407FE5A
:1000E000FACF9EB580910101813051F018F0823035
:1000F00069F008959093000181E0809301010895D3
:100100009093070182E08093010108959093060186
:1001100080910001813089F1823009F045C08091E1
:100120000701813079F028F08230F1F0833099F0C6
:100130003BC0992319F0913019F036C05C9834C057
:100140005C9A32C0992319F0913019F02DC028988B
:100150002BC0289A29C0992319F0913019F024C096
:100160005F9822C05F9A20C0992319F0913019F04E
:100170001BC0419819C0419A17C080910701813076
:1001800049F028F0823079F0833059F00DC0909317
:10019000B4000AC0892F90E0909389008093880072
:1001A00003C097BD01C098BD1092010108950E943F
:1001B00048005298539A219A559A569A549A209ADE
:1001C000399A579A5B9829985D985E980E946000CA
:0A01D0000E946A00FDCFF894FFCFF3
:00000001FF
